:1000000003308A00E72B00000A108A100A118207C9
:1000100028340C340134063454323A00D4363A00D1
:100020003B30840083130008031923280230F800B2
:10003000F701F70B1928F80B18289730F700F70B82
:100040001F28800B16280800420EF039F7000F30E9
:10005000080577048800000008142E282F280810AF
:1000600008000808F700080E0F39F800080088108B
:100070000F3083160805F038880083120815000039
:100080000814000031207808C2000810000008148D
:10009000492831207808C10008100F308316080560
:1000A00088008312420EF700F030F705770841040C
:1000B000F8007808C100C11B38283F1C88103F1881
:1000C00088140000081100000810400EC1000F3015
:1000D000C1054108C200242040080F39C100C200F8
:1000E000242008000F3083160805880008108810A7
:1000F000081183128810081108100F30BB0010205F
:100100000130AD002D08033C031C8E280330C200D3
:1001100024200530BB001020AD0A82280230C20026
:100120002420AD012D08033C031C9F282D0804202A
:10013000AE00BF012E08C0003720AD0A92288A11F8
:100140000A12072C8E30F7002E08F8002D08F9004F
:10015000FA01F808031DB6287908F800F9010830FB
:10016000F702F808031DB628F701BE280310F81B94
:10017000BD28F90DF80DF703B628F81308003A0862
:1001800003192F29C2003E0803192F29C20703189B
:10019000D0287F30C202031C2F2903192F29D4280D
:1001A0008130C20703182F294208F700F801F9012E
:1001B000FA013B08C600C6173C08C5003D08C4004C
:1001C0001830C200C301441CFD284108FA07031C73
:1001D000EF28F90A031DEF28F80A0319C31740088E
:1001E000F907031CF628F80A0319C3173F08BC00D7
:1001F000BC173C08F8070318C317C30DF80CF90C1B
:10020000FA0CC60CC50CC40C0310C20BE22801305A
:10021000F70703182F29F81B1429C60DFA0DF90D3D
:10022000F80DF70303192F29C61F2529FA0A031D04
:100230002529F90A031D2529F80A031D2529F80C8B
:10024000F90CFA0CF70A03192F293B08C3003F08E1
:10025000C306C31F2D29F8173329F8133329F701D3
:10026000F801F901FA01080031080319F929BD0064
:1002700035080319F929BD02031C43297F30BD0746
:100280000318F92949298130BD02031CF9290319F2
:10029000F9293D08F700F801F901FA01BC0132081B
:1002A000BB00BB173308BA003408B9001930BD00D1
:1002B0003808B90203186C290130BA0203186C29F6
:1002C000BB0203186C29BC0203186C29BC0ABB0AC8
:1002D000BA0A3808B9079E293708BA0203188729CD
:1002E0000130BB0203188729BC0203188729BC0A06
:1002F000BB0A3708BA073808B907031C9E29BA0A8F
:10030000031D9E29BB0A031D9E29BC0A9E2936088F
:100310008038BB0203189D290130BC0203189D29B7
:10032000BC0A36088038BB073708BA07031C7B298C
:10033000BB0A031D7B29BC0A7B297A14BD0BA129AA
:10034000AC290310B90DBA0DBB0DBC0D0310FA0D8D
:10035000F90DF80DBE0D58293E1CB4290310F80CF8
:10036000F90CFA0CBE0CB729F7030319F929BE1BC7
:10037000E0290310B90DBA0DBB0DBC0D3808B90248
:100380000318CC290130BA020318CC29BB02031888
:10039000CC29BC02031CEF293708BA020318D7295D
:1003A0000130BB020318D729BC02031CEF29360811
:1003B0008038BB020318E0290130BC02031CEF297E
:1003C000FA0A031DEF29F90A031DEF29F80A031D94
:1003D000EF29F70A0319F929F80CF90CFA0C32087D
:1003E000BD003608BD06BD1FF729F817FD29F81313
:1003F000FD29F701F801F901FA018A110A12892C85
:100400003C0B032A062A4030BD00072ABD010130FB
:100410003B02BD073D088038BE00BF013E08C0005A
:10042000372008003A080C3A03191D2A063A031926
:10043000252A023A03192B2A302ABF010130C000B5
:1004400037200230BB001020362A0130BB000230BA
:10045000BC000022362ABF011030C0003720362AE7
:100460000130BF003A08C0003720362A0800831642
:1004700003178C170C140000000083120C087F393E
:1004800003197B2A0313AD0003170D080313AE00F5
:1004900003170F080313AF002D08BA0012222E080D
:1004A00003178D0003132F0803178F0083168C1773
:1004B0000C140000000083120C0D0E0D7F3903197F
:1004C0007B2A0313AD0003170D080313AE000317B7
:1004D0000F080313AF002D08BA0012222E080317CD
:1004E0008D0003132F0803178F008D0A03198F0A3D
:1004F0000313372A031703130800F701F801F90162
:10050000FA01C201C301C401C501410840043F040E
:100510003E040319BB2A2030C6000310BA0DBB0DE0
:10052000BC0DBD0DC20DC30DC40DC50D4108450266
:10053000031DA42A40084402031DA42A3F084302C5
:10054000031DA42A3E084202031CB52A3E08C2022B
:100550003F08031C3F0FC3024008031C400FC402A6
:100560004108031C410FC5020314F70DF80DF90DE6
:10057000FA0DC60B8D2A423084008313080004084C
:10058000B2003108B4000319DE2A3008BD002F087C
:10059000BC002E08BB002D08BA00C101C0012030EC
:1005A000BF008230BE00BF207A08B0007908AF00DB
:1005B0007808AE007708AD00B40BC52A3008BD003E
:1005C0002F08BC002E08BB002D08BA003A08B63C24
:1005D000BA00FA013B08BE00BB170310BB0CBC0CF1
:1005E000BD0CFA0CF90CF80CF70CBA0BED2ABE1F77
:1005F000042BF709F809F909FA09F70A0319F80AA7
:100600000319F90A0319FA0A7A08B0007908AF0049
:100610007808AE007708AD00B01F1B2BB203B216EE
:10062000AD09AE09AF09B009AD0A0319AE0A031945
:10063000AF0A0319B00A3B30B9009A30B800CA308B
:10064000B700B6010A30B40031080319B20A300805
:10065000BD002F08BC002E08BB002D08BA003908C9
:10066000C1003808C0003708BF003608BE007D2230
:100670000008AD00840A0008AE00840A0008AF003C
:10068000840A0008B000FD308407F708031D5B2BC7
:10069000310A340203195B2B320803195D2B0F3921
:1006A00034020319552B03188D2BB21B8D2B321BD3
:1006B0005D2B2030892B2030B205B21E6B2BB2127D
:1006C0003108031DB2037708B2002D30BA001222A0
:1006D0003208F700B20131083402031D792B770884
:1006E000B2002E30BA0012223208F7002030B205D4
:1006F00000303030B21E892BB2123108031DB20314
:100700007708B2002D30BA0012223208F700B20189
:100710003030F7077708BA0012223908BD003808D0
:10072000BC003708BB003608BA00C101C001BF01D8
:100730000A30BE007D227A08B9007908B80078082E
:10074000B7007708B600B40B272B08002E08B500B9
:100750003208B506B51FB12B03110310AE1B0314ED
:10076000E42B2E08B5003108B6002D08B602031997
:10077000BF2BB51FE42B0308013A8300E42B32089A
:10078000B6002E08B6020319CB2BB51FE42B0308C5
:10079000013A8300E42B3308B6002F08B602031990
:1007A000D72BB51FE42B0308013A8300E42B340850
:1007B000B6003008B6020319E32BB51FE42B03087B
:1007C000013A8300E42B03108A110A12E92C8401F8
:1007D00083131F3083058316031787110C3003130F
:1007E0009900A23098009030831298008316031766
:1007F0000908C039890003131F129F120030031724
:1008000088008312870188018901031372281F174A
:100810009F1783169F1783121F1483160317090847
:10082000C039890003131F129F1203300317880079
:100830000430F800831203131F08C33978049F00A3
:100840000130BB0010209F149F18242C83161E0813
:100850008312A3001E08A4000130BB00102000304A
:10086000F8001F08C33978049F000130BB00102036
:100870009F149F18392C83161E088312A1001E088E
:10088000A2000130BB0010202408AE002308AD00F8
:10089000A2207A08BD007908BC007808BB00770860
:1008A000BA00C101C0014830BF007B30BE00BF208C
:1008B0007A08A8007908A7007808A6007708A5009C
:1008C0002208AE002108AD00A220BD01BC017A3093
:1008D000BB008730BA007A08C1007908C0007808E8
:1008E000BF007708BE00BF207708AD007808AE00D3
:1008F0007908AF007A08B000B4007908B30078082E
:10090000B2007708B100B801B701B6018930B5006F
:1009100034297A08AC007908AB007808AA00770877
:10092000A9000130BB00BC0000220C3003178D0071
:1009300000308F00031337220530BB000130BC00AC
:100940000022013084002808B0002708AF002608E4
:10095000AE002508AD000130B100BF222030BA0042
:1009600012224330BA0012220130BB000230BC0018
:1009700000220E3003178D0000308F000313372242
:100980000530BB000230BC000022013084002C087E
:10099000B0002B08AF002A08AE002908AD000130D6
:1009A000B100BF222030BA0012224330BA00122216
:1009B0002808B0002708AF002608AE002508AD00C3
:1009C0002C08B4002B08B3002A08B2002908B10093
:1009D000A62B0318ED2C031DF22C83160610831290
:1009E0000610F62C831606108312061483160317BE
:0409F000182C63005C
:04400E00D420FF3F7C
:00000001FF
;PIC16F887
;CRC=4963  CREATED="19-may.-17 23:22"
