:1000000000308A0004280000840183131F30830518
:10001000813083169900A6309800903083129800A2
:1000200083161F149F141F159F11FF308312A00009
:1000300083161F149F141F159F1183121F139F13E4
:1000400083169F1383121F148316091283129412AE
:10005000A01220088316870083122016200883161A
:1000600087008312A01120088316870001308312B5
:1000700094000030831694000108C73908388100C5
:10008000831290010030F800920000308316920035
:0200900063000B
:02400E003A3F37
:00000001FF
;PIC16F877
;CRC=722E  CREATED="19-may.-17 23:23"
